:100000000C9434000C943E000C943E000C943E0082
:100010000C943E000C943E000C943E000C943E0068
:100020000C943E000C943E000C943E000C943E0058
:100030000C943E000C943E000C943E000C943E0048
:100040000C943E000C943E000C943E000C943E0038
:100050000C943E000C943E000C943E000C943E0028
:100060000C943E000C943E0011241FBECFEFD8E04C
:10007000DEBFCDBF0E9440000C9474000C940000C1
:1000800084E084B997EC97BD90E294BD95E095BD6E
:1000900080936E0064E031E0329B24C065B940E09B
:1000A00050E015C085B327B590E002C095958795BF
:1000B0002A95E2F780FD04C0423351059CF312C03B
:1000C0004F5F5F4F35BB16BC4233510559F085B3C6
:1000D00027B590E002C0959587952A95E2F780FFB5
:0C00E000E1CFEECF15B8D8CFF894FFCFD9
:00000001FF
