:100000000C9434000C943E000C943E000C943E0082
:100010000C943E000C943E000C943E000C943E0068
:100020000C943E000C943E000C943E000C943E0058
:100030000C943E000C943E000C943E000C943E0048
:100040000C943E000C943E000C943E000C943E0038
:100050000C943E000C943E000C943E000C943E0028
:100060000C943E000C943E0011241FBECFEFD8E04C
:10007000DEBFCDBF0E9440000C9473000C940000C2
:100080008FEF84B980E284BD85E085BD84E08093F4
:100090006E0064E031E0329B24C065B940E050E07E
:1000A00015C085B328B590E002C0959587952A952F
:1000B000E2F780FD04C0423351059CF312C04F5F4C
:1000C0005F4F35BB16BC4233510559F085B328B597
:1000D00090E002C0959587952A95E2F780FFE1CFE1
:0A00E000EECF15B8D8CFF894FFCF8B
:00000001FF
