:100000000C9434000C943E000C943E000C943E0082
:100010000C943E000C943E000C943E000C943E0068
:100020000C943E000C943E000C943E000C943E0058
:100030000C943E000C943E000C943E000C943E0048
:100040000C943E000C943E000C943E000C943E0038
:100050000C943E000C943E000C943E000C943E0028
:100060000C943E000C943E0011241FBECFEFD8E04C
:10007000DEBFCDBF0E9440000C94B3000C94000082
:100080008FEF84B98CED87BD86E988BD80EA84BD99
:1000900085E085BD86E080936E0021E030E051E090
:1000A00002C02F5F3F4FC901019780FD2EC055B997
:1000B00085B347B590E002C0959587954A95E2F7DC
:1000C00080FD0AC085B347B590E002C0959587953D
:1000D0004A95E2F780FFF6CF16BC55BB85B347B50E
:1000E00090E002C0959587954A95E2F780FD0AC099
:1000F00085B347B590E002C0959587954A95E2F79C
:1001000080FFF6CF16BC55BBCCCF15B885B348B52C
:1001100090E002C0959587954A95E2F780FD0AC068
:1001200085B348B590E002C0959587954A95E2F76A
:1001300080FFF6CF16BC15BA85B348B590E002C073
:10014000959587954A95E2F780FD0AC085B348B535
:1001500090E002C0959587954A95E2F780FFF6CF2B
:0A01600016BC15BA9ECFF894FFCF2D
:00000001FF
