:100000000C9434000C943E000C943E000C943E0082
:100010000C943E000C943E000C943E000C943E0068
:100020000C943E000C943E000C943E000C943E0058
:100030000C943E000C943E000C944D000C943E0039
:100040000C943E000C943E000C943E000C943E0038
:100050000C943E000C943E000C943E000C943E0028
:100060000C943E000C943E0011241FBECFEFD8E04C
:10007000DEBFCDBF0E9440000C948E000C940000A7
:1000800094E094B982E284BD85B5856085BD909386
:100090006E008FEF88BD7894FFCF1F920F920FB63E
:1000A0000F9211242F933F934F935F938F939F93BE
:1000B000329B29C095B184E0892785B940E050E0A2
:1000C00031E015C085B328B590E002C095958795BD
:1000D0002A95E2F780FD04C0413351059CF312C01C
:1000E0004F5F5F4F35BB16BC4133510559F085B3A7
:1000F00028B590E002C0959587952A95E2F780FF94
:10010000E1CFEECF15B89F918F915F914F913F91C5
:100110002F910F900FBE0F901F901895F894FFCF5E
:00000001FF
