S01700004763634170706C69636174696F6E332E7372656359
S11300000C9434000C943E000C943E000C943E007E
S11300100C943E000C943E000C943E000C943E0064
S11300200C943E000C943E000C943E000C943E0054
S11300300C943E000C943E000C943E000C943E0044
S11300400C9452000C943E000C943E000C943E0020
S11300500C943E000C943E000C943E000C943E0024
S11300600C943E000C943E0011241FBECFEFD8E048
S1130070DEBFCDBF0E9440000C9481000C940000B0
S1130080789484E084B987EC87BD85E085BD81E000
S113009080936E005A9AE9E6F0E080818160808363
S11300A0E89AFFCF1F920F920FB60F92112464E0CB
S11300B031E0329B24C065B940E050E015C085B3FF
S11300C027B590E002C0959587952A95E2F780FDC3
S11300D004C0423351059CF312C04F5F5F4F35BBE0
S11300E016BC4233510559F085B327B590E002C0E0
S11300F0959587952A95E2F780FFE1CFEECF15B865
S1090100D8CFF894FFCFF4
S9030000FC
