:100000000C9434000C943E000C943E000C943E0082
:100010000C943E000C943E000C943E000C943E0068
:100020000C943E000C943E000C943E000C943E0058
:100030000C943E000C943E000C9452000C9468000A
:100040000C943E000C943E000C943E000C943E0038
:100050000C943E000C943E000C943E000C943E0028
:100060000C943E000C943E0011241FBECFEFD8E04C
:10007000DEBFCDBF0E944E000C947D000C940000AA
:10008000789487ED88BD81E987BD85B58D6085BD94
:10009000EEE6F0E08081866080830895219A0E94D8
:1000A0004000FFCF1F920F920FB60F9211248F9333
:1000B0009F9381E085B985EF91ED0197F1F700C03D
:1000C00000009F918F910F900FBE0F901F90189579
:1000D0001F920F920FB60F9211248F939F9315B812
:1000E00089E99DE80197F1F700C000009F918F9189
:0E00F0000F900FBE0F901F901895F894FFCF41
:00000001FF
